{"abi":[{"type":"constructor","inputs":[],"stateMutability":"nonpayable"},{"type":"function","name":"UPGRADE_INTERFACE_VERSION","inputs":[],"outputs":[{"name":"","type":"string","internalType":"string"}],"stateMutability":"view"},{"type":"function","name":"getFlips","inputs":[],"outputs":[{"name":"","type":"uint8[10]","internalType":"uint8[10]"}],"stateMutability":"view"},{"type":"function","name":"initialize","inputs":[{"name":"initialOwner","type":"address","internalType":"address"}],"outputs":[],"stateMutability":"nonpayable"},{"type":"function","name":"owner","inputs":[],"outputs":[{"name":"","type":"address","internalType":"address"}],"stateMutability":"view"},{"type":"function","name":"proxiableUUID","inputs":[],"outputs":[{"name":"","type":"bytes32","internalType":"bytes32"}],"stateMutability":"view"},{"type":"function","name":"renounceOwnership","inputs":[],"outputs":[],"stateMutability":"nonpayable"},{"type":"function","name":"seed","inputs":[],"outputs":[{"name":"","type":"string","internalType":"string"}],"stateMutability":"view"},{"type":"function","name":"seedRotation","inputs":[{"name":"NewSeed","type":"string","internalType":"string"}],"outputs":[],"stateMutability":"nonpayable"},{"type":"function","name":"transferOwnership","inputs":[{"name":"newOwner","type":"address","internalType":"address"}],"outputs":[],"stateMutability":"nonpayable"},{"type":"function","name":"upgradeToAndCall","inputs":[{"name":"newImplementation","type":"address","internalType":"address"},{"name":"data","type":"bytes","internalType":"bytes"}],"outputs":[],"stateMutability":"payable"},{"type":"function","name":"userInput","inputs":[{"name":"Guesses","type":"uint8[10]","internalType":"uint8[10]"}],"outputs":[{"name":"","type":"bool","internalType":"bool"}],"stateMutability":"view"},{"type":"event","name":"Initialized","inputs":[{"name":"version","type":"uint64","indexed":false,"internalType":"uint64"}],"anonymous":false},{"type":"event","name":"OwnershipTransferred","inputs":[{"name":"previousOwner","type":"address","indexed":true,"internalType":"address"},{"name":"newOwner","type":"address","indexed":true,"internalType":"address"}],"anonymous":false},{"type":"event","name":"Upgraded","inputs":[{"name":"implementation","type":"address","indexed":true,"internalType":"address"}],"anonymous":false},{"type":"error","name":"AddressEmptyCode","inputs":[{"name":"target","type":"address","internalType":"address"}]},{"type":"error","name":"ERC1967InvalidImplementation","inputs":[{"name":"implementation","type":"address","internalType":"address"}]},{"type":"error","name":"ERC1967NonPayable","inputs":[]},{"type":"error","name":"FailedInnerCall","inputs":[]},{"type":"error","name":"InvalidInitialization","inputs":[]},{"type":"error","name":"NotInitializing","inputs":[]},{"type":"error","name":"OwnableInvalidOwner","inputs":[{"name":"owner","type":"address","internalType":"address"}]},{"type":"error","name":"OwnableUnauthorizedAccount","inputs":[{"name":"account","type":"address","internalType":"address"}]},{"type":"error","name":"SeedTooShort","inputs":[]},{"type":"error","name":"UUPSUnauthorizedCallContext","inputs":[]},{"type":"error","name":"UUPSUnsupportedProxiableUUID","inputs":[{"name":"slot","type":"bytes32","internalType":"bytes32"}]}],"bytecode":{"object":"0x60a06040523060805234801561001457600080fd5b5061001d610022565b6100d4565b7ff0c57e16840df040f15088dc2f81fe391c3923bec73e23a9662efc9c229c6a00805468010000000000000000900460ff16156100725760405163f92ee8a960e01b815260040160405180910390fd5b80546001600160401b03908116146100d15780546001600160401b0319166001600160401b0390811782556040519081527fc7f505b2f371ae2175ee4913f4499e1f2633a7b5936321eed1cdaeb6115181d29060200160405180910390a15b50565b60805161119f6100fd6000396000818161081f01528181610848015261098e015261119f6000f3fe60806040526004361061009c5760003560e01c80637d94792a116100645780637d94792a146101355780638da5cb5b14610157578063ad3cb1cc1461019e578063c4d66de8146101cf578063ddabf9b2146101ef578063f2fde38b1461021f57600080fd5b806327236822146100a15780634f1ef286146100c357806352d1902d146100d65780635ff7a0bd146100fe578063715018a614610120575b600080fd5b3480156100ad57600080fd5b506100c16100bc366004610d2c565b61023f565b005b6100c16100d1366004610d99565b610375565b3480156100e257600080fd5b506100eb610394565b6040519081526020015b60405180910390f35b34801561010a57600080fd5b506101136103b1565b6040516100f59190610dfb565b34801561012c57600080fd5b506100c1610519565b34801561014157600080fd5b5061014a61052d565b6040516100f59190610e54565b34801561016357600080fd5b507f9016d09d72d40fdae2fd8ceac6b6234c7706214fd39c1cd1e609a0528c199300546040516001600160a01b0390911681526020016100f5565b3480156101aa57600080fd5b5061014a604051806040016040528060058152602001640352e302e360dc1b81525081565b3480156101db57600080fd5b506100c16101ea366004610e87565b6105bb565b3480156101fb57600080fd5b5061020f61020a366004610ea2565b6106fa565b60405190151581526020016100f5565b34801561022b57600080fd5b506100c161023a366004610e87565b610776565b6102476107b9565b80518190600a81101561026d5760405163cde2a69360e01b815260040160405180910390fd5b60005b600581101561035557600083610287600185610ee3565b8151811061029757610297610ef6565b01602001516001600160f81b031916905060006102b5600185610ee3565b90505b801561032057846102ca600183610ee3565b815181106102da576102da610ef6565b602001015160f81c60f81b8582815181106102f7576102f7610ef6565b60200101906001600160f81b031916908160001a9053508061031881610f0c565b9150506102b8565b50808460008151811061033557610335610ef6565b60200101906001600160f81b031916908160001a90535050600101610270565b5060006103628382610fa5565b50600061036f8482610fa5565b50505050565b61037d610814565b610386826108b9565b61039082826108c1565b5050565b600061039e610983565b5060008051602061111383398151915290565b6103b9610c81565b60008080546103c790610f23565b80601f01602080910402602001604051908101604052809291908181526020018280546103f390610f23565b80156104405780601f1061041557610100808354040283529160200191610440565b820191906000526020600020905b81548152906001019060200180831161042357829003601f168201915b50505050509050600081519050610455610c81565b6000610462600a8461107b565b905060005b600a81101561050f5760008561047d848461108f565b8151811061048d5761048d610ef6565b016020908101516040516001600160f81b03199091169181019190915242602182015260410160408051601f19818403018152919052805160209091012090506104d86002826110a6565b156104e45760006104e7565b60015b8483600a81106104f9576104f9610ef6565b60ff909216602092909202015250600101610467565b5090949350505050565b6105216107b9565b61052b60006109cc565b565b6000805461053a90610f23565b80601f016020809104026020016040519081016040528092919081815260200182805461056690610f23565b80156105b35780601f10610588576101008083540402835291602001916105b3565b820191906000526020600020905b81548152906001019060200180831161059657829003601f168201915b505050505081565b7ff0c57e16840df040f15088dc2f81fe391c3923bec73e23a9662efc9c229c6a008054600160401b810460ff16159067ffffffffffffffff166000811580156106015750825b905060008267ffffffffffffffff16600114801561061e5750303b155b90508115801561062c575080155b1561064a5760405163f92ee8a960e01b815260040160405180910390fd5b845467ffffffffffffffff19166001178555831561067457845460ff60401b1916600160401b1785555b61067d86610a3d565b610685610a4e565b604051806060016040528060378152602001611133603791396000906106ab9082610fa5565b5083156106f257845460ff60401b19168555604051600181527fc7f505b2f371ae2175ee4913f4499e1f2633a7b5936321eed1cdaeb6115181d29060200160405180910390a15b505050505050565b6000806107056103b1565b905060005b600a81101561076c578181600a811061072557610725610ef6565b602002015160ff168482600a811061073f5761073f610ef6565b60200201602081019061075291906110ba565b60ff1614610764575060009392505050565b60010161070a565b5060019392505050565b61077e6107b9565b6001600160a01b0381166107ad57604051631e4fbdf760e01b8152600060048201526024015b60405180910390fd5b6107b6816109cc565b50565b336107eb7f9016d09d72d40fdae2fd8ceac6b6234c7706214fd39c1cd1e609a0528c199300546001600160a01b031690565b6001600160a01b03161461052b5760405163118cdaa760e01b81523360048201526024016107a4565b306001600160a01b037f000000000000000000000000000000000000000000000000000000000000000016148061089b57507f00000000000000000000000000000000000000000000000000000000000000006001600160a01b031661088f600080516020611113833981519152546001600160a01b031690565b6001600160a01b031614155b1561052b5760405163703e46dd60e11b815260040160405180910390fd5b6107b66107b9565b816001600160a01b03166352d1902d6040518163ffffffff1660e01b8152600401602060405180830381865afa92505050801561091b575060408051601f3d908101601f19168201909252610918918101906110dd565b60015b61094357604051634c9c8ce360e01b81526001600160a01b03831660048201526024016107a4565b600080516020611113833981519152811461097457604051632a87526960e21b8152600481018290526024016107a4565b61097e8383610a56565b505050565b306001600160a01b037f0000000000000000000000000000000000000000000000000000000000000000161461052b5760405163703e46dd60e11b815260040160405180910390fd5b7f9016d09d72d40fdae2fd8ceac6b6234c7706214fd39c1cd1e609a0528c19930080546001600160a01b031981166001600160a01b03848116918217845560405192169182907f8be0079c531659141344cd1fd0a4f28419497f9722a3daafe3b4186f6b6457e090600090a3505050565b610a45610aac565b6107b681610af5565b61052b610aac565b610a5f82610afd565b6040516001600160a01b038316907fbc7cd75a20ee27fd9adebab32041f755214dbc6bffa90cc0225b39da2e5c2d3b90600090a2805115610aa45761097e8282610b62565b610390610bda565b7ff0c57e16840df040f15088dc2f81fe391c3923bec73e23a9662efc9c229c6a0054600160401b900460ff1661052b57604051631afcd79f60e31b815260040160405180910390fd5b61077e610aac565b806001600160a01b03163b600003610b3357604051634c9c8ce360e01b81526001600160a01b03821660048201526024016107a4565b60008051602061111383398151915280546001600160a01b0319166001600160a01b0392909216919091179055565b6060600080846001600160a01b031684604051610b7f91906110f6565b600060405180830381855af49150503d8060008114610bba576040519150601f19603f3d011682016040523d82523d6000602084013e610bbf565b606091505b5091509150610bcf858383610bf9565b925050505b92915050565b341561052b5760405163b398979f60e01b815260040160405180910390fd5b606082610c0e57610c0982610c58565b610c51565b8151158015610c2557506001600160a01b0384163b155b15610c4e57604051639996b31560e01b81526001600160a01b03851660048201526024016107a4565b50805b9392505050565b805115610c685780518082602001fd5b604051630a12f52160e11b815260040160405180910390fd5b604051806101400160405280600a906020820280368337509192915050565b634e487b7160e01b600052604160045260246000fd5b600067ffffffffffffffff80841115610cd157610cd1610ca0565b604051601f8501601f19908116603f01168101908282118183101715610cf957610cf9610ca0565b81604052809350858152868686011115610d1257600080fd5b858560208301376000602087830101525050509392505050565b600060208284031215610d3e57600080fd5b813567ffffffffffffffff811115610d5557600080fd5b8201601f81018413610d6657600080fd5b610d7584823560208401610cb6565b949350505050565b80356001600160a01b0381168114610d9457600080fd5b919050565b60008060408385031215610dac57600080fd5b610db583610d7d565b9150602083013567ffffffffffffffff811115610dd157600080fd5b8301601f81018513610de257600080fd5b610df185823560208401610cb6565b9150509250929050565b6101408101818360005b600a811015610e2757815160ff16835260209283019290910190600101610e05565b50505092915050565b60005b83811015610e4b578181015183820152602001610e33565b50506000910152565b6020815260008251806020840152610e73816040850160208701610e30565b601f01601f19169190910160400192915050565b600060208284031215610e9957600080fd5b610c5182610d7d565b6000610140808385031215610eb657600080fd5b838184011115610ec557600080fd5b509092915050565b634e487b7160e01b600052601160045260246000fd5b81810381811115610bd457610bd4610ecd565b634e487b7160e01b600052603260045260246000fd5b600081610f1b57610f1b610ecd565b506000190190565b600181811c90821680610f3757607f821691505b602082108103610f5757634e487b7160e01b600052602260045260246000fd5b50919050565b601f82111561097e576000816000526020600020601f850160051c81016020861015610f865750805b601f850160051c820191505b818110156106f257828155600101610f92565b815167ffffffffffffffff811115610fbf57610fbf610ca0565b610fd381610fcd8454610f23565b84610f5d565b602080601f8311600181146110085760008415610ff05750858301515b600019600386901b1c1916600185901b1785556106f2565b600085815260208120601f198616915b8281101561103757888601518255948401946001909101908401611018565b50858210156110555787850151600019600388901b60f8161c191681555b5050505050600190811b01905550565b634e487b7160e01b600052601260045260246000fd5b60008261108a5761108a611065565b500490565b8082028115828204841417610bd457610bd4610ecd565b6000826110b5576110b5611065565b500690565b6000602082840312156110cc57600080fd5b813560ff81168114610c5157600080fd5b6000602082840312156110ef57600080fd5b5051919050565b60008251611108818460208701610e30565b919091019291505056fe360894a13ba1a3210667c828492db98dca3e2076cc3735a920a3ca505d382bbc4974206973206120676f6f6420707261637469636520746f20726f74617465207365656473206f6674656e20696e2067616d626c696e67a26469706673582212209954a74a49a67dc0947571893511185c80ca4cd3ec3ea973de5a9e25e96e3be364736f6c63430008180033","linkReferences":{}},"methodIdentifiers":{"UPGRADE_INTERFACE_VERSION()":"ad3cb1cc","getFlips()":"5ff7a0bd","initialize(address)":"c4d66de8","owner()":"8da5cb5b","proxiableUUID()":"52d1902d","renounceOwnership()":"715018a6","seed()":"7d94792a","seedRotation(string)":"27236822","transferOwnership(address)":"f2fde38b","upgradeToAndCall(address,bytes)":"4f1ef286","userInput(uint8[10])":"ddabf9b2"},"id":33}